:0300000002015E9C
:0C015E00787FE4F6D8FD75817B0201A5D6
:100026007FBFDFEFF7FBFDFE0000000000000000D1
:10003600007C8282827C000000000884FE80000032
:10004600000064524A44000000008292926C000054
:1000560000001018147E100000008C9494640000B8
:1000660000007C92926400000000020212FE100062
:1000760000006C92926C000000008C92927C000052
:1000860000F8141214F800000000FE92926C0000B2
:1000960000007C82828200000000FE82827C0000DA
:1000A6000000FE92929200000000FE121212000062
:1000B60000007C82927210000000FE1010FE00000C
:1000C60000008282FE828200000082827E020000A0
:1000D60000FE10284482000000FE80808080000020
:1000E6000000FE040804FE00007E0408107E0000E6
:1000F600000078848484780000FE1212120C00003E
:10010600003E4242627C800000FE1232528C0000A9
:10011600008C92926200000000000202FE020200C1
:1001260000007E8080807E0000003E4080403E00D1
:100136000000FE402040FE00004224181824420021
:1001460000000204F8040200004262524A464200DD
:080156000000000000000000A1
:1003CB0002080000020A00000833000000000000D1
:1003DB00000020260C203031323334353637383993
:1003EB004142434445464748494A4B4C4D4E4F507A
:0B03FB005152535455565758595A2080
:0E047B00EF1FAC0670011E4C60030080F322E0
:10046B00758920758DFD759850D28ED2AFD2AC2286
:080018008F993099FDC2992275
:0300230002038B4A
:10038B00C0E0C0D075D000C000C004C006C00730AC
:10039B009821859932743B250BF8A632050BE50B9A
:1003AB007002050AC2987508007509017F0A7E0064
:1003BB0012047BD007D006D004D000D0D0D0E032CE
:02040700A90743
:10040900E4FDFCAF057E007401A807088005C3332D
:10041900CE33CED8F9FFE9FB3395E05EFEEF5B4EB4
:100429006004D2B48002C2B4D2B6C2B60DBD000116
:070439000CED64084C70CCCF
:010440002299
:1002F8008B798A7A897BE4F568F569C2B5AB79AA06
:100308007AA97B856982856883120345FF120407F1
:1003180074262569F58274003568F583E493F580C1
:100328007F507E0012047BD2B50569E5697002052D
:0D03380068C39408E5686480948040BF228B
:080274008E718F728C738D7482
:10027C00E4F575F576E4FFFE74342FF8E6FD74337F
:10028C002FF8A6050FBF00010EEF64074E70E9AE04
:10029C0073E5747803C333CE33CED8F9242EF582AC
:1002AC0074003EF583E5822576F582E5833575F598
:1002BC0083E493F53AE4F577F578C3E5789572E540
:1002CC0077957150137B007A0079331202F8057818
:1002DC00E57870E6057780E20576E57670020575BF
:0B02EC00C39408E57564809480408A8C
:0102F70022E4
:0601EA008B6A8A6B896C30
:1001F000E4F56DF56EAB6AAA6BA96C120003C3E55A
:100200006E9FE56D9E506CE4F56FF570AB6AAA6B5E
:10021000A96C856E82856D83120345FF740C257071
:10022000F8E6B50731AD70AC6F7F0A7E001202743C
:10023000AB6AAA6BA96C120003EF24FFFFEE34FF38
:10024000FEEFB56E24EEB56D207D257C007F0A7E25
:100250000012027480130570E5707002056FC3947C
:1002600025E56F6480948040A3056EE56E70860579
:030270006D80821C
:010273002268
:1004410012046BE5096401450870F87F32FE12045D
:100451007B7F4F1200187B007A00793B1201EAE49E
:0A046100F50AF50BF508F50980D93E
:10016A00020441E493A3F8E493A34003F68001F266
:10017A0008DFF48029E493A3F85407240CC8C33396
:10018A00C4540F4420C8834004F456800146F6DF65
:10019A00E4800B01020408102040809003CBE47E27
:1001AA00019360BCA3FF543F30E509541FFEE4935A
:1001BA00A360010ECF54C025E060A840B8E493A321
:1001CA00FAE493A3F8E493A3C8C582C8CAC583CA4C
:1001DA00F0A3C8C582C8CAC583CADFE9DEE780BE04
:0104060000F5
:10034500BB010CE58229F582E5833AF583E022506D
:1003550006E92582F8E622BBFE06E92582F8E222B7
:0D036500E58229F582E5833AF583E49322D1
:10000300E4FFFE120372600C0FEF70010E09E9703A
:05001300F20A80EF225B
:10037200BB010689828A83E0225002E722BBFE0289
:09038200E32289828A83E49322BC
:00000001FF
